S012000041756667616265312D312E73726563D8
S11300000C9434000C943E000C943E000C943E007E
S11300100C943E000C943E000C943E000C943E0064
S11300200C943E000C943E000C943E000C943E0054
S11300300C943E000C943E000C943E000C943E0044
S11300400C943E000C943E000C943E000C943E0034
S11300500C943E000C943E000C943E000C943E0024
S11300600C943E000C943E0011241FBECFEFD8E048
S1130070DEBFCDBF0E9440000C946C000C940000C5
S113008082E084B91AB88CE08BB982E04B9915C030
S113009085B92FEF33EC99E0215030409040E1F7DF
S11300A000C0000015B8EFEFF3EC29E0E150F04098
S11300B02040E1F700C00000E9CF85B9EFE3FCE997
S11300C03197F1F700C0000015B8EFE3FCE9319770
S10F00D0F1F700C00000DACFF894FFCF75
S9030000FC
